:020000000C28CA
:10000800FE000308F1000408F2000A08F3008B2D33
:10001800E52E2B2879289A28BE28E12800291F29AF
:1000280036294D2964297B299229A929C029E7293C
:10003800FE29172A932AAA2CAC2CAE2CB12CB42C4E
:10004800B72CBA2CBE2CC22CC42CC92CBC2A8312A7
:1000580027087706031935287708A7001030F90014
:100068004D280A30F4007608C926CA000A30F40080
:100078007608AD26CB000A30F4007708C926CC00F4
:100088000A30F4007708AD26CD00FA30A400CE017E
:10009800CE0A35081E3A031D53281130F9003D08D1
:1000A80003190800250876060319080009307602A6
:1000B800031C080016307602031808007608A5000D
:1000C800CE01CE0AAA01AA0AFF30C5008F30C600A9
:1000D8000130C5020030031CC603C602450A0319D5
:1000E800460A031D6C28AA01080083122608023A52
:1000F8000319F60A183076020318F6012608033A9F
:100108000319F603FB307602031C8C281730F6001F
:100118000A30F4007608C926CA000A30F4007608C6
:10012800AD26CB000A30CC00CD000800831226088B
:10013800023A031DA128F70AB5013C3077020318DB
:10014800F7012608033A031DAB28F703B501FB3076
:100158007702031CB1283B30F7000A30CA00CB00F5
:10016800F4007708C926CC000A30F4007708AD26D9
:10017800CD00080083122608023A0319B30A183082
:1001880033020318B3012608033A0319B303FB30FB
:100198003302031CD1281730B3000A30F4003308A7
:1001A800C926CA000A30F4003308AD26CB000A304D
:1001B800CC00CD00CE01CE0A080083122608023AF0
:1001C8000319B40A3C3034020318B4012608033A70
:1001D8000319B403FB303402031CF4283B30B40089
:1001E8000A30CA00CB00F4003408C926CC000A3013
:1001F800F4003408AD26DD2883122608023A0319D4
:10020800F50A08307502031C0B29F501F50A2608C2
:10021800033A0319F503F508031D14290730F500FF
:10022800CA010A30CB00CC007508CD00CE01A60863
:10023800031908001B29023083122602031C2B29EC
:10024800360803192929B6012B29B601B60ACA01AD
:10025800CA0A0A30CB00CC003608CD00A60803191C
:1002680008003229023083122602031C422937086B
:1002780003194029B7014229B701B70A0230CA0059
:100288000A30CB00CC003708CD00A60803190800B7
:100298004929023083122602031C592938080319F8
:1002A8005729B8015929B801B80A0330CA000A30D9
:1002B800CB00CC003808CD00A60803190800602937
:1002C800023083122602031C7029390803196E298B
:1002D800B9017029B901B90A0430CA000A30CB0043
:1002E800CC003908CD00A608031908007729023088
:1002F80083122602031C87293A0803198529BA01A3
:100308008729BA01BA0A0530CA000A30CB00CC00E6
:100318003A08CD00A608031908008E290230831276
:100328002602031C9E293B0803199C29BB019E2910
:10033800BB01BB0A0630CA000A30CB00CC003B0820
:10034800CD00A60803190800A52902308312260249
:10035800031CB5293C080319B329BC01B529BC0104
:10036800BC0A0730CA000A30CB00CC003C08CD00DC
:10037800A60803190800BC2983122608023A0319A3
:10038800B20A15303202031CCB291430B2002608F9
:10039800033A0319B203FB3032020318B2010830E2
:1003A800CA000A30CB00F4003208C926CC000A3053
:1003B800F4003208AD26CD003208233E9500A60889
:1003C80003190800E329023083122602031CF329CB
:1003D8003D080319F129BD01F329BD01BD0A093002
:1003E800CA000A30CB00CC003D08CD00A60803198E
:1003F8000800FA290A30F4007608C926CA000A302B
:10040800F4007608AD26CB000A30F4007708C92638
:10041800CC000A30F4007708AD26CD00A608031DED
:10042800122AF90108008312CE01CE0AC701093049
:10043800470203182C2A4708CA00C70AFF30C5001C
:100448000F30C600C8220319460A03191B2A262A98
:100458000A30F4007608C926CA00C70109304702E5
:100468000318432A4708CB00C70AFF30C5000F30DE
:10047800C600C8220319460A0319322A3D2A0A303F
:10048800F4007608AD26CB00C701093047020318EF
:100498005A2A4708CC00C70AFF30C5000F30C600EB
:1004A800C8220319460A0319492A542A0A30F400B3
:1004B8007708C926CC00C701093047020318712AFA
:1004C8004708CD00C70AFF30C5000F30C600C82254
:1004D8000319460A0319602A6B2A0A30F4007708C0
:1004E800AD26CD0083169C18762A0B309B00760823
:1004F8007E2503188B179C187F2A0C309B007708E1
:100508007E2503188B179C18872A0D309B008312B1
:10051800350883167E25031C152A8B17152A831286
:1005280035081F3A031DA22A0A30CA00CB00CC00A6
:10053800CD008B13EB25C500C6018B17CE010A3001
:10054800BE00BF014608C1004508C00019263E0884
:10055800CC000A30BE00BF014608C1004508C000F3
:1005680068263E08CD003508243A031D0800152AE0
:1005780079088400123004020318080000308A0049
:100588000D300407820008000130C502031CC603B1
:10059800450A08008B0183168C0183128C018501A2
:1005A8008601223083168500860183128501860123
:1005B800873083168100073083129F0090019201D3
:1005C80097010B17831681120111811001148111F3
:1005D800831281018B160B119015901480308F00B7
:1005E800101483160C143C309200013083129500CD
:1005F8000C30970038309200121583169B011C149A
:100608001A088312B300013083169B001C141A08C1
:100618008312B400023083169B001C141A0883123C
:10062800B600033083169B001C141A088312B70007
:10063800043083169B001C141A088312B800053076
:1006480083169B001C141A088312B90006308316FF
:100658009B001C141A088312BA00073083169B00EB
:100668001C141A088312BB00083083169B001C1444
:100678001A088312BC00093083169B001C141A0840
:100688008312B2000A3083169B001C141A088312C6
:10069800BD000B3083169B001C141A08F6000C30A2
:1006A8009B001C141A08F7000D309B001C141A0834
:1006B8008312B50018303302031C642B0730B300D3
:1006C8003C303402031C6A2B0F30B400023036026F
:1006D800031C702BB601B60A02303702031C762BB6
:1006E800B601B60A02303802031C7C2BB601B60AE2
:1006F80002303902031C822BB601B60A02303A02D4
:10070800031C882BB601B60A02303B020318B60157
:1007180002303C020318B60115303202031C962B36
:100728001430B20002303D02031C9C2BBD01BD0AEF
:1007380019307602031CA22B0C30F6003C307702ED
:10074800031CA82B2230F7003C3035020318B501F2
:100758003208233E95008B178518B72BAC01AC0ADD
:10076800AB01AB0AB82BAC01AC08031DB02B2B08AE
:100778000319CA2B2230831685008601831285014E
:1007880086018B160C309700AB01A60128083506A8
:100798000319E32B3508A8002908031DA903290B11
:1007A800D72BF9010D2579080319E22B7908103A9E
:1007B8000319E22B7908113A031DE32B2A2083122F
:1007C800260BFE2BAA08031DFE2BF90A2A208312EA
:1007D800A608031DEB2BFF30C8001F30C9000130ED
:1007E800C802031CC903480A0319490A031DF32B4D
:1007F8000F30A90002302602031C1B2CAA08031D77
:100808001B2C790803191B2C2A20FF308312C800DF
:100818001F30C9000130C8020030031CC903C902D7
:10082800480A0319490A031D0E2C0F30A90026088F
:100838000319332C2A080319332CAA01A608031D0F
:10084800222CFF30C800C9000130C8020030031C48
:10085800C903C902480A0319490A031D282C760846
:100868003306031D7B2C77083406031D7B2CB50843
:10087800031D7B2C36080319452C750B452CAA0142
:10088800AA0A370803194E2C7508023A031D4E2C84
:10089800AA01AA0A38080319572C7508033A031D38
:1008A800572CAA01AA0A39080319602C7508043ABA
:1008B800031D602CAA01AA0A3A080319692C7508B5
:1008C800053A031D692CAA01AA0A3B080319722CD0
:1008D8007508063A031D722CAA01AA0A3C080319D6
:1008E8007B2C7508073A031D7B2CAA01AA0A7708F6
:1008F80034060319B02BAA01B02BF80A0430780289
:100908000318F801831203130612861206108610C4
:100918004630F000F0037008FF3A031D8E2C831256
:10092800031385170517A6010510851A9D2C02309B
:10093800A60005148513851AA32CA601A60A8517F7
:100948000513851ACE2C0330A600CE2C0517BB2C18
:100958000513AF2C05170510C02C05130510CB2C5B
:1009680005130514C62C05130514BC2C0513051016
:100978008513CC2C051305148513C72C0513CA2C15
:100988000513051085170511DD2C051705148517A6
:100998000515DD2C78084A3E84008313000884007E
:1009A8000B3004020318DD2C00308A001F300407C6
:1009B8008200F808031DE72C78084A3E84000A30B4
:1009C8000002031C0616780BF02C78084A3E8400B7
:1009D8000A300002031C86167808023A031DFB2C15
:1009E80078084A3E84000A300002031C061478087E
:1009F800033A031D062D78084A3E84000A30000297
:100A0800031C86144E0803190B2D06150800061141
:100A180008008B1383169C180E2D9B018312330834
:100A280083167E2503188B179C18182D01309B0000
:100A38008312340883167E2503188B179C18222DE1
:100A480002309B008312360883167E2503188B1705
:100A58009C182C2D03309B008312370883167E25A3
:100A680003188B179C18362D04309B008312380806
:100A780083167E2503188B179C18402D05309B0084
:100A88008312390883167E2503188B179C184A2D64
:100A980006309B0083123A0883167E2503188B17AD
:100AA8009C18542D07309B0083123B0883167E2523
:100AB80003188B179C185E2D08309B0083123C0886
:100AC80083167E2503188B179C18682D09309B0008
:100AD8008312320883167E2503188B179C18722DF3
:100AE8000A309B0083123D0883167E2503188B1756
:100AF8008B1708009A0003108B1B03148B131C150B
:100B080055309D00AA309D009C141C11080001302E
:100B18000B1D00398B1E003900380319AA2D8124BA
:100B2800A403240B9B2DF908031D9B2DCE014E0811
:100B38000319A62D2A080319A62D851DA52D851193
:100B4800A62D8515AA08031985110B1101308312EA
:100B580003130C1C003983160C1C003900380319C8
:100B6800E22D803083128F00B50A3C303502031C19
:100B7800BF2DB501F70A3C307702031CC52DF701DC
:100B8800F60A18307602031CCB2DF601F50A083058
:100B98007502031CD12DF501F50A2C080319E02D67
:100BA8008B129701831685018601831285018601C0
:100BB800630000008316851483120C1073088A00E2
:100BC8007208840071088300FE0E7E0E0900FD265F
:100BD800CC308C2644308C26FD26CC308C26BE307A
:100BE8008C264326A2004326A000A101BE002208AD
:100BF800A0003E08A100803AFE008F307E02031D4F
:100C0800072EFF3020020318132E0430FE00831233
:100C18000313210DA10CA00CFE0B0B2E172E831213
:100C28000313A001A10120080800C301C4013F0863
:100C38003E0403193E2EC201C20ABF1B272E031011
:100C4800BE0DBF0D202E0310C30DC40D3F08410279
:100C5800031D302E3E084002031C3A2E3E08C002F7
:100C68003F08031CC103C10243140310BF0CBE0C90
:100C7800C20B272E4408BF004308BE000800AD0180
:100C8800AE0183160512831205120000831605169D
:100C980000308312051A0130F4002E0A552E031075
:100CA800F40DFF3E031D532E7408AD040630AF004B
:100CB800AF032F08FF3A031D5C2EAE0A2E08083A30
:100CC800031D452E2D0808003F083E040319872EF2
:100CD800F401F40ABF1B742E0310BE0DBF0D6D2E58
:100CE8003F084102031D7A2E3E084002031C832E52
:100CF8003E08C0023F08031CC103C1020310BF0C19
:100D0800BE0CF40B742E4108BF004008BE0008005A
:100D1800F400B0018316051283120512741C982E74
:100D28008312031305169B2E831203130512031057
:100D3800F40C0630B100B1033108FF3A031D9F2EB1
:100D4800831605168312B00A3008083A03190800FA
:100D58008E2EBF000830C000C1013F08BE0007301A
:100D68000310BE0CFF3E0310031DB52E410D3E04BB
:100D7800C1000310BF0D74084102031CC52E74087E
:100D8800C102C00BB12E410808008312BE00C00189
:100D980074080319E32EBF01BF0AF41BD62E0310F3
:100DA800F40DD02E0310C00D74083E02031CE02E73
:100DB8007408BE0240140310F40CBF0BD62E400872
:100DC8000800F801F901831320308400323013271A
:100DD8000130CA000230CB000330CC000430CD0013
:100DE8000130CE00F5000C30F6002230F700830108
:100DF800CE2A83160512831205124B30A300A303D3
:100E08002308FF3A031D032F831605162D3083127E
:100E1800A300A3032308FF3A031908000D2F640059
:0E0E28008001840A0406031900340406142F06
:02400E00103F61
:1042000007000F0001000100010001000100000093
:1042100000000A0001000C0022000000FF00FF0067
:00000001FF
